:100000000C9434000C9451000C9451000C94510049
:100010000C9453000C9451000C9451000C9451001A
:100020000C9451000C9451000C9451000C9451000C
:100030000C9451000C9451000C9451000C945100FC
:100040000C9451000C9451000C9451000C945100EC
:100050000C9451000C9451000C9451000C945100DC
:100060000C9451000C94510011241FBECFEFD8E026
:10007000DEBFCDBF11E0A0E0B1E0E6E6F9E002C0EE
:1000800005900D92A830B107D9F721E0A8E0B1E0C2
:1000900001C01D92A331B207E1F70E9490010C94B8
:1000A000B1040C9400001F920F920FB60F9211240E
:1000B0002F933F934F935F936F937F938F939F9370
:1000C00080910F019091100190930B0180930A0190
:1000D00020910C0130910D013093120120931101F8
:1000E000349905C01092100110920F0106C041E032
:1000F00050E05093100140930F01359905C01092C4
:100100000D0110920C0106C041E050E050930D012A
:1001100040930C0140910F0150911001481759076D
:1001200041F460910C0170910D016217730709F49D
:1001300068C061E060930E0141155105C1F4609102
:100140000C0170910D016115710589F581309105E2
:1001500051F440910801509109014F5F5F4F509356
:100160000901409308012130310509F51AC04130D9
:10017000510509F046C060910C0170910D0161308C
:10018000710579F5009751F44091080150910901EA
:100190004F5F5F4F509309014093080121153105CE
:1001A00001F58091080190910901019715C0613016
:1001B000710539F5019749F4809108019091090181
:1001C00001979093090180930801232BD1F480912A
:1001D000080190910901019690930901809308010B
:1001E00010C0672B71F4892B49F48091080190911C
:1001F000090101979093090180930801213031058D
:1002000031F39F918F917F916F915F914F913F91CA
:100210002F910F900FBE0F901F901895E8E6F0E019
:10022000808182608083ECE6F0E08081806380835F
:100230008AB1806F8AB984B1836084B988B18063E0
:1002400088B908959BB19F709BB99BB1807F892B22
:100250008BB92998299A299A29980895CF93C82F5C
:1002600028980E9422018C2F8295807F0E94220173
:100270008FE39FE10197F1F700C00000CF9108954F
:10028000803110F4805801C080550C942E018FE508
:100290009AEE0197F1F700C00000289880E30E94D1
:1002A00022018FE19EE40197F1F700C0000080E396
:1002B0000E9422018FED91E00197F1F700C000004C
:1002C00080E30E94220180E20E9422018FE39FE1ED
:1002D0000197F1F700C0000088E20E942E018FE034
:1002E0000C942E01CF93C82F289A0E9422018C2FA4
:1002F0008295807F0E9422018FE39FE10197F1F7B1
:1003000000C00000CF910895CF93DF93EC01899155
:10031000882319F00E947201FACFDF91CF910895DE
:10032000CF93DF93CDB7DEB764970FB6F894DEBFF7
:100330000FBECDBF0E940E010E944701789481E05C
:100340000E942E0180E0E82E81E0F82E94E1D92E63
:100350008E010F5F1F4F80910E018130E1F7809178
:1003600009018F93809108018F93FF92EF921F9262
:10037000DF921F930F930E94D20183E091E00E94CD
:10038000840180E00E944001C8010E94840180E055
:100390000E94400110920E010FB6F894DEBF0FBE0E
:1003A000CDBFD9CFAEE0B0E0E8EDF1E00C94880429
:1003B0000D891E898F89988D26E02C831A830983E5
:1003C00097FF02C080E090E801979E838D83AE0185
:1003D000455E5F4F698D7A8DCE0101960E940202C3
:1003E0004D815E8157FD0AC02F8138854217530722
:1003F0000CF49A01F801E20FF31F10822E96E4E04C
:100400000C94A404ACE0B0E0E8E0F2E00C947A04D0
:100410007C016B018A01FC0117821682838181FFB6
:10042000BDC1CE0101964C01F7019381F60193FD08
:10043000859193FF81916F01882309F4ABC18532C7
:1004400039F493FD859193FF81916F01853229F4F1
:10045000B70190E00E94EA03E7CF512C312C20E055
:100460002032A0F48B3269F030F4803259F08332BC
:1004700069F420612CC08D3239F0803339F4216069
:1004800026C02260246023C0286021C027FD27C029
:1004900030ED380F3A3078F426FF06C0FAE05F9E60
:1004A000300D1124532E13C08AE0389E300D1124D4
:1004B000332E20620CC08E3221F426FD6BC12064E5
:1004C00006C08C3611F4206802C0883641F4F6016B
:1004D00093FD859193FF81916F018111C1CF982F79
:1004E0009F7D9554933028F40C5F1F4FFFE3F983F1
:1004F0000DC0833631F0833771F0833509F05BC06E
:1005000022C0F801808189830E5F1F4F44244394E9
:10051000512C540115C03801F2E06F0E711CF80126
:10052000A080B18026FF03C0652D70E002C06FEF90
:100530007FEFC5012C870E94DF032C0183012C85EE
:100540002F77222E17C03801F2E06F0E711CF801D0
:10055000A080B18026FF03C0652D70E002C06FEF60
:100560007FEFC5012C870E94D4032C012C852068C5
:10057000222E830123FC1BC0832D90E048165906D0
:10058000B0F4B70180E290E00E94EA033A94F4CF1D
:10059000F50127FC859127FE81915F01B70190E06D
:1005A0000E94EA0331103A94F1E04F1A51084114C5
:1005B000510471F7E5C0843611F0893639F5F80138
:1005C00027FF07C060817181828193810C5F1F4F7B
:1005D00008C060817181882777FD8095982F0E5F14
:1005E0001F4F2F76B22E97FF09C09095809570957A
:1005F00061957F4F8F4F9F4F2068B22E2AE030E0E9
:10060000A4010E941C04A82EA81844C0853729F410
:100610002F7EB22E2AE030E025C0F22FF97FBF2EC8
:100620008F36C1F018F4883579F0B4C0803719F0EE
:10063000883721F0AFC02F2F2061B22EB4FE0DC03D
:100640008B2D8460B82E09C024FF0AC09F2F9660AE
:10065000B92E06C028E030E005C020E130E002C03D
:1006600020E132E0F801B7FE07C06081718182812C
:1006700093810C5F1F4F06C06081718180E090E024
:100680000E5F1F4FA4010E941C04A82EA818FB2D6A
:10069000FF77BF2EB6FE0BC02B2D2E7FA51450F476
:1006A000B4FE0AC0B2FC08C02B2D2E7E05C07A2CE9
:1006B0002B2D03C07A2C01C0752C24FF0DC0FE0128
:1006C000EA0DF11D8081803311F4297E09C022FFDB
:1006D00006C07394739404C0822F867809F07394D3
:1006E00023FD13C020FF06C05A2C731418F4530CBA
:1006F0005718732C731468F4B70180E290E02C87CC
:100700000E94EA0373942C85F5CF731410F4371804
:1007100001C0312C24FF12C0B70180E390E02C8788
:100720000E94EA032C8522FF17C021FF03C088E541
:1007300090E002C088E790E0B7010CC0822F867875
:1007400059F021FD02C080E201C08BE227FD8DE25D
:10075000B70190E00E94EA03A51438F4B70180E3E2
:1007600090E00E94EA035A94F7CFAA94F401EA0DAC
:10077000F11D8081B70190E00E94EA03A110F5CF3E
:10078000332009F451CEB70180E290E00E94EA03E1
:100790003A94F6CFF7018681978102C08FEF9FEFE1
:1007A0002C96E2E10C949604FC0105906150704097
:1007B0000110D8F7809590958E0F9F1F0895FC012A
:1007C0006150704001900110D8F7809590958E0F80
:1007D0009F1F08950F931F93CF93DF93182F092F17
:1007E000EB018B8181FD03C08FEF9FEF20C082FF63
:1007F00010C04E815F812C813D81421753077CF4EC
:10080000E881F9819F012F5F3F4F3983288310834F
:1008100006C0E885F985812F0995892B29F72E8156
:100820003F812F5F3F4F3F832E83812F902FDF919A
:10083000CF911F910F910895FA01AA27283051F105
:10084000203181F1E8946F936E7F6E5F7F4F8F4F01
:100850009F4FAF4FB1E03ED0B4E03CD0670F781F60
:10086000891F9A1FA11D680F791F8A1F911DA11D45
:100870006A0F711D811D911DA11D20D009F468947E
:100880003F912AE0269F11243019305D3193DEF626
:10089000CF010895462F4770405D4193B3E00FD0DC
:1008A000C9F7F6CF462F4F70405D4A3318F0495DC7
:1008B00031FD4052419302D0A9F7EACFB4E0A695AA
:1008C0009795879577956795BA95C9F700976105CC
:1008D000710508959B01AC010A2E06945795479522
:1008E00037952795BA95C9F7620F731F841F951F17
:1008F000A01D08952F923F924F925F926F927F9228
:100900008F929F92AF92BF92CF92DF92EF92FF921F
:100910000F931F93CF93DF93CDB7DEB7CA1BDB0BCB
:100920000FB6F894DEBF0FBECDBF09942A88398870
:1009300048885F846E847D848C849B84AA84B98477
:10094000C884DF80EE80FD800C811B81AA81B98183
:10095000CE0FD11D0FB6F894DEBF0FBECDBFED0197
:060960000895F894FFCF9A
:08096600256400202020200080
:00000001FF
