:100000000C9434000C9449000C9449000C94490061
:100010000C9449000C9449000C9449000C9449003C
:100020000C9449000C9449000C9449000C9449002C
:100030000C9449000C9449000C9449000C9449001C
:100040000C9449000C9449000C9449000C9449000C
:100050000C9449000C9449000C9449000C944900FC
:100060000C9449000C94490011241FBECFEFD8E036
:10007000DEBFCDBF11E0A0E0B1E0E4E4F8E002C0F3
:1000800005900D92A830B107D9F70E94C8000C94D2
:1000900020040C940000EBE6F0E080818262808313
:1000A0008AB1806F8AB984B1836084B988B1806372
:1000B00088B908959BB19F709BB99BB1807F892BB4
:1000C0008BB92998299A299A29980895CF93C82FEE
:1000D00028980E945A008C2F8295807F0E945A0097
:1000E0008FE39FE10197F1F700C00000CF910895E1
:1000F000803110F4805801C080550C9466008FE563
:100100009AEE0197F1F700C00000289880E30E9462
:100110005A008FE19EE40197F1F700C0000080E3F0
:100120000E945A008FED91E00197F1F700C00000A6
:1001300080E30E945A0080E20E945A008FE39FE110
:100140000197F1F700C0000088E20E9466008FE08E
:100150000C946600CF93C82F289A0E945A008C2FC7
:100160008295807F0E945A008FE39FE10197F1F70B
:1001700000C00000CF910895CF93DF93EC018991E7
:10018000882319F00E94AA00FACFDF91CF91089539
:10019000CF93DF93CDB7DEB764970FB6F894DEBF89
:1001A0000FBECDBF0E944B000E947F0081E00E94E5
:1001B000660000E010E080E0682E81E0782E94E197
:1001C000392ECE0101964C0186B184FBAA24A0F8F9
:1001D000B12C86B185FBEE24E0F8F12CAC14BD0403
:1001E00031F4E414F50419F427016501EDCFA114ED
:1001F000B104A1F4E114F10449F4CA94CD2811F436
:100200000F5F1F4F4A944528F9F412C0CA94CD28B5
:1002100011F4015011094528B9F414C091E0E91610
:10022000F10449F4CD2811F40F5F1F4F452861F404
:100230000150110909C0CD2811F4015011094A9447
:10024000452811F40F5F1F4F1F930F937F926F92FA
:100250001F923F929F928F920E94410183E091E012
:100260000E94BC0080E00E947800C4010E94BC0093
:1002700080E00E9478000FB6F894DEBF0FBECDBFBD
:10028000B3CFAEE0B0E0E7E4F1E00C94F7030D8902
:100290001E898F89988D26E02C831A83098397FF06
:1002A00002C080E090E801979E838D83AE01455E99
:1002B0005F4F698D7A8DCE0101960E9471014D814B
:1002C0005E8157FD0AC02F813885421753070CF411
:1002D0009A01F801E20FF31F10822E96E4E00C94CD
:1002E0001304ACE0B0E0E7E7F1E00C94E9037C0133
:1002F0006B018A01FC0117821682838181FFBDC1D7
:10030000CE0101964C01F7019381F60193FD859191
:1003100093FF81916F01882309F4ABC1853239F4D1
:1003200093FD859193FF81916F01853229F4B70187
:1003300090E00E945903E7CF512C312C20E020326D
:10034000A0F48B3269F030F4803259F0833269F4D2
:1003500020612CC08D3239F0803339F4216026C001
:100360002260246023C0286021C027FD27C030ED13
:10037000380F3A3078F426FF06C0FAE05F9E300D61
:100380001124532E13C08AE0389E300D1124332ED1
:1003900020620CC08E3221F426FD6BC1206406C0A1
:1003A0008C3611F4206802C0883641F4F60193FDC2
:1003B000859193FF81916F018111C1CF982F9F7D0E
:1003C0009554933028F40C5F1F4FFFE3F9830DC061
:1003D000833631F0833771F0833509F05BC022C07A
:1003E000F801808189830E5F1F4F44244394512C70
:1003F000540115C03801F2E06F0E711CF801A080A5
:10040000B18026FF03C0652D70E002C06FEF7FEF63
:10041000C5012C870E944E032C0183012C852F7768
:10042000222E17C03801F2E06F0E711CF801A08077
:10043000B18026FF03C0652D70E002C06FEF7FEF33
:10044000C5012C870E9443032C012C852068222E95
:10045000830123FC1BC0832D90E048165906B0F49D
:10046000B70180E290E00E9459033A94F4CFF5017D
:1004700027FC859127FE81915F01B70190E00E94E2
:10048000590331103A94F1E04F1A510841145104C4
:1004900071F7E5C0843611F0893639F5F80127FF88
:1004A00007C060817181828193810C5F1F4F08C0FA
:1004B00060817181882777FD8095982F0E5F1F4F8F
:1004C0002F76B22E97FF09C0909580957095619513
:1004D0007F4F8F4F9F4F2068B22E2AE030E0A4015B
:1004E0000E948B03A82EA81844C0853729F42F7EBC
:1004F000B22E2AE030E025C0F22FF97FBF2E8F36D2
:10050000C1F018F4883579F0B4C0803719F0883715
:1005100021F0AFC02F2F2061B22EB4FE0DC08B2D65
:100520008460B82E09C024FF0AC09F2F9660B92EA0
:1005300006C028E030E005C020E130E002C020E144
:1005400032E0F801B7FE07C060817181828193813A
:100550000C5F1F4F06C06081718180E090E00E5FEC
:100560001F4FA4010E948B03A82EA818FB2DFF7714
:10057000BF2EB6FE0BC02B2D2E7FA51450F4B4FE5B
:100580000AC0B2FC08C02B2D2E7E05C07A2C2B2D64
:1005900003C07A2C01C0752C24FF0DC0FE01EA0DAA
:1005A000F11D8081803311F4297E09C022FF06C02D
:1005B0007394739404C0822F867809F0739423FD9A
:1005C00013C020FF06C05A2C731418F4530C57188C
:1005D000732C731468F4B70180E290E02C870E94BA
:1005E000590373942C85F5CF731410F4371801C098
:1005F000312C24FF12C0B70180E390E02C870E94C9
:1006000059032C8522FF17C021FF03C088E590E025
:1006100002C088E790E0B7010CC0822F867859F0BD
:1006200021FD02C080E201C08BE227FD8DE2B7010F
:1006300090E00E945903A51438F4B70180E390E0DC
:100640000E9459035A94F7CFAA94F401EA0DF11DC0
:100650008081B70190E00E945903A110F5CF3320AB
:1006600009F451CEB70180E290E00E9459033A9418
:10067000F6CFF7018681978102C08FEF9FEF2C960E
:10068000E2E10C940504FC010590615070400110FA
:10069000D8F7809590958E0F9F1F0895FC016150AB
:1006A000704001900110D8F7809590958E0F9F1F94
:1006B00008950F931F93CF93DF93182F092FEB010A
:1006C0008B8181FD03C08FEF9FEF20C082FF10C0A0
:1006D0004E815F812C813D81421753077CF4E88174
:1006E000F9819F012F5F3F4F39832883108306C014
:1006F000E885F985812F0995892B29F72E813F817E
:100700002F5F3F4F3F832E83812F902FDF91CF911B
:100710001F910F910895FA01AA27283051F1203135
:1007200081F1E8946F936E7F6E5F7F4F8F4F9F4F85
:10073000AF4FB1E03ED0B4E03CD0670F781F891FC7
:100740009A1FA11D680F791F8A1F911DA11D6A0F95
:10075000711D811D911DA11D20D009F468943F9148
:100760002AE0269F11243019305D3193DEF6CF0147
:100770000895462F4770405D4193B3E00FD0C9F70D
:10078000F6CF462F4F70405D4A3318F0495D31FD7A
:100790004052419302D0A9F7EACFB4E0A6959795CD
:1007A000879577956795BA95C9F7009761057105A3
:1007B00008959B01AC010A2E0694579547953795ED
:1007C0002795BA95C9F7620F731F841F951FA01D47
:1007D00008952F923F924F925F926F927F928F92E5
:1007E0009F92AF92BF92CF92DF92EF92FF920F93C0
:1007F0001F93CF93DF93CDB7DEB7CA1BDB0B0FB6CA
:10080000F894DEBF0FBECDBF09942A883988488886
:100810005F846E847D848C849B84AA84B984C8841C
:10082000DF80EE80FD800C811B81AA81B981CE0F13
:10083000D11D0FB6F894DEBF0FBECDBFED010895F8
:04084000F894FFCF5A
:080844002564002020202000A3
:00000001FF
