:100000000C9434000C943E000C943E000C943E0082
:100010000C943E000C943E000C943E000C943E0068
:100020000C943E000C943E000C943E000C943E0058
:100030000C943E000C943E000C943E000C943E0048
:100040000C943E000C943E000C943E000C943E0038
:100050000C943E000C943E000C943E000C943E0028
:100060000C943E000C943E0011241FBECFEFD8E04C
:10007000DEBFCDBF0E94B5000C94C3000C940000FD
:100080008AB1806F8AB984B1836084B908959BB1C5
:100090009F709BB99BB1807F892B8BB92998299A36
:1000A000299A29980895CF93C82F28980E9447002D
:1000B0008C2F8295807F0E9447008FE39FE10197FC
:1000C000F1F700C00000CF910895803110F48058FE
:1000D00001C080550C9453008FE59AEE0197F1F71B
:1000E00000C00000289880E30E9447008FE19EE452
:1000F0000197F1F700C0000080E30E9447008FEDF8
:1001000091E00197F1F700C0000080E30E944700F2
:1001100080E20E9447008FE39FE10197F1F700C062
:10012000000088E20E9453008FE00C945300CF93AC
:10013000C82F289A0E9447008C2F8295807F0E94AA
:1001400047008FE39FE10197F1F700C00000CF91D6
:100150000895CF93DF93EC018991882319F00E94D1
:100160009700FACFDF91CF9108950E9440000E943E
:100170006C0081E00E94530085E00E94650080E0F1
:0A0180000E949700FFCFF894FFCF14
:00000001FF
